:020000000C945E
:100002002A000C9400000C9400000C9400000C9444
:1000120000000C9400000C9400000C9400000C945E
:1000220000000C9400000C9400000C9400000C944E
:1000320000000C9400000C9400000C9400000C943E
:1000420000000C9400000C9400000C9400000C942E
:100052000000F894EE27ECBBF1E0FBBFEBBFE5BF7D
:10006200F8E1F1BDE1BD8DE0A2E0BB27ED938A95F9
:10007200E9F780E094E0A0E6ED930197E9F7EFE578
:10008200EDBFE4E0EEBFC0E6D1E00C944800E0E052
:10009200EBBBEABBE8BBE8E0E7BBE0E0E5BBE4BB07
:1000A200E2BBE0E8E1BBEBE6E3BFE0E0E2BFECBFCE
:1000B200EFBDEEBDEDBDECBDE7BDE6BDEBBDEABDFE
:1000C200E9BDE8BDE2BDECE6E5BDE0E0E4BDE3BDCF
:1000D200E5BFE4BFE9BFEAB9E0E8E8B9E0E0E0BFC4
:1000E200E6B9EDB9E6BFEFEFEABBE0E0E4BBEAEF69
:1000F200ECBFE3BD989902C0D89801C0D89A9999EB
:1001020002C0D99801C0D99A9A9902C0DA9801C05E
:10011200DA9A9B9902C0DB9801C0DB9AE4CFFFCF49
:00000001FF
