:080000000C943F000C946F000A
:100008000C9400000C9400000C9400000C94000068
:100018000C9400000C9400000C9400000C94000058
:100028000C9400000C9400000C9400000C94000048
:100038000C9400000C9400000C9400000C94000038
:100048000C9400000C9400000C94000000002C009C
:100058002020200001002D4E414E00494E46000050
:1000680080C002000400540001006A015C00020024
:100078006E0168000000F894EE27ECBBF1E0FBBFCE
:10008800EBBFE5BFF8E1F1BDE1BD8DE0A2E0BB2724
:10009800ED938A95E9F780E094E0A0E6ED93019767
:1000A800E9F7EAE6F0E085919591009761F0A5916E
:1000B800B59105901590BF01F00105900D9201973B
:1000C800E1F7FB01F0CFEFE5EDBFE4E0EEBFC0E6FE
:1000D800D1E00C94AA000A921A92FA926A937A933F
:1000E8008A939A93AA93BA93EA93FA93EFB7EA9307
:1000F800F20131962F01E0E0EA93A1E00E94540258
:100108005A924A92A0E6B1E00E940602A0E6B1E047
:100118000E948202E991EFBFF991E991B991A99101
:100128009991899179916991F99019900990189507
:10013800AA93E881E7B98BE18A95F1F7369A349B5F
:10014800FECF349AE4B1F5B10C94D0022C97E0E0DC
:10015800EA87EB87EBBBEABBE8BBE7BBE5BBE4BBE5
:10016800E2BBE1BBE3BFE2BFECBFEFBDEEBDEDBD5F
:10017800ECBDE7BDE6BDEBBDEABDE9BDE8BDE2BD4E
:10018800E5BDE4BDE3BDEBB7E064EBBFE2E0E5BF8E
:10019800E0E0E4BFE0E4EABFE0E0E9BFEAB9E0E8B4
:1001A800E8B9E0E0E0BFE7B9E6EAE6B9E0B7EF7141
:1001B800E0BFE0E0EDB9E6BFA0E10E94A4027894B8
:1001C800E0EFE7BBB09B07C0B19B05C00E94D2021D
:1001D80011F4B39901C014C0B09B07C0B19B05C00E
:1001E8000E94D20211F4B39901C001C0F5CFEA858B
:1001F800FB853196EA87FB87E170F070EA87FB8719
:10020800EA85FB85309711F00C9454010E94D702BF
:1002180041F4B19B06C00E94D20219F40E94DC028C
:1002280009F002C0C49A31C00E94D70251F4A0E07C
:10023800B199A1E0A03029F40E94D20211F4B39937
:1002480001C005C0C498C59AC698C79A21C00E9423
:10025800D70251F4A0E0B199A1E0A03029F4B29BF3
:1002680003C00E94DC0209F004C0C49AC598C6986D
:100278000EC00E94D70239F4B19B05C0B29B03C0DF
:100288000E94DC0209F008C0C498C598C69AC798AD
:10029800ACE2B1E00E94FA02C498C598C698C79823
:1002A800AA85BB85119711F00C940402A0E040DFE9
:1002B8008F011A930A930E94E102E0E0EA93A0E01A
:1002C8000E9454020E94E502A1E032DF9F013A93A6
:1002D8002A930E94E1020E94E502A2E029DFAF0111
:1002E8005A934A930E94E102DE010E948202A8E525
:1002F800B0E00E9491020A39E1E01E0724F40D37AC
:10030800E1E01E070CF413C02A34E1E03E0724F4B0
:100318002931E1E03E070CF40AC04535E1E05E070B
:1003280024F04336E1E05E070CF001C001C004C0D0
:10033800C49AC598C69A63C00A39E1E01E0724F436
:100348000E36E1E01E070CF413C02B34E1E03E0743
:1003580024F02A39E1E03E070CF00AC04435E1E018
:100368005E0724F44C33E1E05E070CF401C001C0E1
:1003780005C0C498C59AC698C79A42C00A39E1E030
:100388001E0724F40436E1E01E070CF413C02A34D7
:10039800E1E03E0724F42431E1E03E070CF40AC012
:1003A8004535E1E05E0724F04237E1E05E070CF0F6
:1003B80001C001C004C0C498C598C69A20C00A39B3
:1003C800E1E01E0724F40F35E1E01E070CF413C02A
:1003D8002F34E1E03E0724F4223EE0E03E070CF42F
:1003E8000AC04535E1E05E0724F04A39E1E05E07DE
:1003F8000CF001C001C004C0C49AC598C698C7983B
:10040800DFCEFFCFBA93AA93A991B991E991F99157
:1004180030962AF4E095F09531966DE26D93E89464
:1004280080E197E20DD088EE93E00AD084E6992720
:1004380007D08AE005D06E2F10D066276C930895F8
:100448006627E817F90720F06395E81BF90BC9F749
:10045800662311F416F008956894605D6D9308950D
:10046800AA93E5B3EF70AE2FE881E07FEA2BE5BBF6
:1004780085E08A95F1F7AA9A8DE08A95F1F7AA980E
:100488008DE08A95F1F788C0AA93A881E9DFE88111
:10049800E295E883A881E4DF85E88A95F1F77CC0D6
:1004A800AA93E881F0E0E259FE4FE081A981AE0FFE
:1004B800EBDF7980688022960895A2E00E94EC0222
:1004C800ACE0E2DFA1E00E94EC02E0E06E2E7E2EBE
:1004D8000895AA93A881AA3011F0791448F0E0E0B1
:1004E800EA936394A62DDCDFA881AA3009F454C0EE
:1004F8007394A89AA881C8DFA8984EC0BA93AA9303
:100508001A93A981BA81ED91A983BA831E2FE0308D
:1005180019F0A12FDEDFF5CF10C0BA93AA931A9372
:10052800E981FA813196E983FA833197E4911E2FA4
:10053800E03019F0A12FCDDFF3CF1881239608956D
:10054800AA93E4B3E06FE4BBA29AA09AA19AAA98EE
:10055800A898A9989880E881E058E0937001E8810C
:10056800E054E0937101A4E1B0E00E94FA020E9415
:10057800F2020E94F2020E94F202A0E271DF88EC0D
:1005880090E00197F1F7A8E27FDFA4E07DDFA5E81E
:100598007BDFA6E079DF91DF21960895A0E0B2998C
:1005A800A1E0A0300895A0E0B099A1E0A03008959E
:1005B800A0E0B399A1E0A0300895DE0112960C9452
:1005C8000602DE010E948202A6E5B0E00C949102C8
:1005D8000E944802A3E0B0E00C94FA02A0E30E9453
:1005E800340288EC90E00197F1F70895109639F0FD
:1005F80080ED97E00197F1F7A8951197C9F708954D
:00000001FF
